:020000040800F2
:10000000005000208D010008890100080000000058
:10001000890100088901000889010008000000002A
:10002000000000000000000000000000890100083E
:10003000890100080000000089010008890100080A
:100040008901000889010008890100088901000868
:100050008901000889010008890100088901000858
:100060008901000889010008890100088901000848
:100070008901000889010008890100088901000838
:100080008901000889010008890100088901000828
:100090008901000889010008890100088901000818
:1000A0008901000889010008890100088901000808
:1000B00089010008890100088901000889010008F8
:1000C00089010008890100088901000889010008E8
:1000D00089010008890100088901000889010008D8
:1000E00089010008890100088901000889010008C8
:1000F00089010008890100088901000889010008B8
:1001000089010008890100088901000889010008A7
:100110008901000889010008890100088901000897
:100120008901000889010008890100088901000887
:100130008901000889010008890100088901000877
:100140008901000889010008890100088916000852
:100150008901000889010008890100088901000857
:100160008901000889010008890100088901000847
:100170008901000889010008890100088901000837
:100180008901000889010008FEE70000684620F0A8
:1001900007018D4601B500230A4A0B499818884289
:1001A00004D20A49585898500433F5E7084B094AD5
:1001B000934203D2002043F8040BF8E700F00CF858
:1001C000FEE700BF000000203800002000390008D2
:1001D00038000020481C00202DE9F743002000F0E3
:1001E00061FF002001F008F9012001F09DF8684648
:1001F00001F075FE002401238DF805408DF80430D0
:100200008DF80640B5490A196058958802AE0583F5
:100210006946083446F8085D01F014FE182CF1D147
:100220000027AF4CE31938599A8802A9028341F894
:10023000082D0837694601F005FE302FF1D1002660
:10024000A84DAF197059BC8802AB44836946083683
:1002500043F8084D01F0F6FD182EF1D1A24D082605
:10026000284669460096802401F0ECFD2E839F4DC0
:10027000DFF87C8208264FF020094FF40057A8F8D9
:100280001A9001206F836E8301F0D8F8A8F81890B7
:1002900001202F832E8301F0D1F8013CE7D12046C5
:1002A0008F4A131881589D88083030284D83F7D124
:1002B000012001F0C3F80027894EF019BC5982884B
:1002C0000837302F2283F7D1012001F0B7F800253D
:1002D00001218DF804508DF80710804B5F1902AC96
:1002E000BE88E85844F8086D6946083501F0AAFD53
:1002F000182DF2D100257A48421902A9938828586E
:1003000041F8083D0835694601F09CFD302DF2D1D9
:100310000027744EF41902A8A588694640F8085DC4
:10032000B859083701F08EFD182FF2D1704F6420B4
:1003300001F022F83A6902F0010501F0B4F9C6B201
:1003400016B93B69D9070BD53DB18020012101F0D9
:1003500023FE8020002101F01FFE002001F0AAF9F9
:10036000002000F02FFB002000F024F9B6B960490E
:100370000C69E20770D45F480778422F6CD15E4A5F
:100380001678002E68D001F0D1FC0120002100F089
:10039000DFFF5A4BDF78082F46D103E0102000F032
:1003A000DDFA59E06FF00700012101F0E9FD6FF07F
:1003B0008000012101F0F0FD4FF0FF30012101F03C
:1003C000F7FD4FF0FF30012101F0FEFD4FF0FF304F
:1003D000002101F0D5FD4FF0FF30002101F0DCFDE0
:1003E0004FF0FF30002101F0E3FD4FF0FF3000211E
:1003F00001F0EAFD45B18020012101F0CDFD802012
:10040000002101F0C9FD08E001F04DF928B13C4898
:10041000D0F8E4550DB102F0C5FA3A4E346884F3D1
:10042000088836490A68904700F0CEFF012001464F
:1004300000F08EFF00F0D2FF40F2F31398421F4607
:10044000F8D900F0C1FF0120002100F081FF00F089
:10045000C5FFB842FBD9E7E700F0B6FF00F0BEFFEA
:100460003227B0FBF7F364210446B3FBF1F001FB44
:10047000103242F21073B4FBF3F1560841F28830A7
:1004800003FB11428242B4FBF7F307FB134188BF21
:10049000C6EB07060120B14294BF002101210A27C3
:1004A00000F056FFB4FBF7F607FB16440CB900F05A
:1004B000A9FD002000F03AFD00F090FF44F61F6116
:1004C0008842CBD900F080F80028C7D1002D3FF436
:1004D0005AAF074A1069C307C0D454E73036000842
:1004E0004836000818360008001002400004024098
:1004F00000000240D23F0008D33F0008044000083B
:10050000EC15002000400008124B1A78032A10B5A1
:100510000BD811490C6800F07F004FEAC41444EA7C
:10052000001008600FD104220EE0072A0FD80B49F3
:100530000C6800F07F004FEAC41444EA0010086021
:1005400001D1082200E001321A70002010BD4FF0E6
:10055000FF3010BDFC0400203800002044000020C3
:1005600070B5134B88B016461A7804460D468DF8C0
:1005700000209978DA7858781B798DF802108DF878
:1005800003208DF801008DF8043000F083FD8DF814
:100590000500F7208DF808006946204609228DF8ED
:1005A00006508DF8076000F087FA08B070BD00BFF4
:1005B0007837000810B9034B187070474FF0FF30C0
:1005C000704700BFFD040020014B1878704700BF42
:1005D000FD0400202DE9F04198460C4615460646DC
:1005E00000F04CFD00F0F0FEB8F1010F04D0B8F1BE
:1005F000020F40F0A38189E0B14B14B1012C0AD164
:1006000004E01C70AF4BB04A1C6092E019780729D7
:1006100000F2918197E01978082903D030460E2125
:100620000122E5E0A948AA4C02784378817822703B
:10063000C2780079A34FA44D6370A170E27020715D
:100640003F682D6800F026FD4FEA556E6071780E08
:100650000223E071C7F386417044A3712172C7F38E
:10066000C62341186372C7F3061253FA81F3C5F328
:100670008640A27252FA83F250FA82F1C5F3C62381
:1006800053FA81F22073C5F3061050FA82F16373B6
:100690000023A07384F80BE0C9B21A460F34184641
:1006A000A84221D010F807E04FF0080C01335200A7
:1006B000DBB242EADE12062B4FEA4E0ED2B25FFAEE
:1006C0008EFE0AD9C3F1070302FA03F2D2B251181F
:1006D000002304F8012BC9B21A460CF1FF3C1CF0B0
:1006E000FF0CE3D10130DBE71BB18B1804F8012BC1
:1006F000D9B24A42764902F07F00F723A21C20704B
:1007000063703046521A00F0D7F914E114B1012C8D
:1007100053D110E06A4B6B496B486E4A1C700C60F9
:1007200004606D4B6D496E4814706E4A1C700C600D
:1007300004601460FFE062480178072907D8654922
:1007400008782A180A702846FFF7DEFEF3E0082929
:100750002BD160480278AB18037060480368B3F58A
:10076000806F80F0E880584E5E4F5D4C3668386888
:10077000226807240132C5F380176D00072A47EA73
:100780004000EDB206D9524AD0540133B34228BFDB
:1007900009210022013CEDD1524C206050480260FA
:1007A0004E4A1360464B1970C5E0092902D14A4BE5
:1007B0001D70C0E00C220270BDE0434B47481F682B
:1007C0000168B942FFF42AAF3D4A13780C2B03D1DC
:1007D00030460E2142460BE03E4A3F4813780178EE
:1007E000584200F07F02914205D030460E2103228C
:1007F000FFF7B6FE9FE0334B3B4901240C701C68A9
:1008000044EA0700830740F08C80384A944202D8BB
:100810006FF0070087E000F0D9FC00F100614B1E8B
:100820009C426DD801F074FA00230C2159433048E2
:100830000A58944224D12F492F488C4201D10022DA
:1008400002600121006801FA03F1014203D02B4D3F
:100850004FF000082EE041EA000227490A60244ACE
:100860000C2000FB03230221586801F0B5FA082888
:10087000EDD04FF0FF3001F061FA6FF0030052E06D
:1008800001330C2BD1D1E2E76B7829781A0442EAC4
:10089000012315F8011CAA780B4343EA026101F019
:1008A0007DFA04350828E4D101F02AFA01F020FA93
:1008B00008F10408B84508EB0400E5D342E000BFA6
:1008C000FC04002038000020440000207837000895
:1008D0004C0000204000002048000020F8040020C8
:1008E000F404002000050020FD040020FF3F000864
:1008F00078360008004000083C0000204D00002031
:10090000B4F1005F84D300F069FC00F10050421E96
:1009100094423FF67DAF20460E493A4602F072FE01
:1009200010E06FF0080043420E213046DAB2FFF7C4
:1009300017FE00F067FB0020BDE8F0814FF0FF30AC
:10094000BDE8F0810449087842420F21304602F0A8
:100950007F02ECE74C0000204000002010B5114B56
:1009600088B01A7899788DF800200446DA7858789B
:100970001B798DF802108DF803208DF801008DF899
:10098000043000F087FBF7218DF8050001208DF879
:1009900006008DF8071020466946082200F08CF802
:1009A00008B010BD7837000808B52020FFF7D6FF43
:1009B0001020FFF7D3FF024B0020187008BD00BFC6
:1009C000FD04002010B5044600282CD1174A184910
:1009D000102313700B70174A174B184918601060DA
:1009E0000860174B174A184918601060086000F03B
:1009F00061FF164B164A1C70164B174914701C7079
:100A00000A78C00F422A04D114490A78110658BF47
:100A10001A70134B00211980124900220023C1E9EA
:100A20000023404210BD4FF0FF3010BD00000020F9
:100A300001000020040500200C05002030050020E6
:100A40003805002020050020100500201405002096
:100A50001805002015050020D03F0008D13F0008F0
:100A6000160500202805002010F0F00F38B50446C8
:100A70000D4604D101280CBF0C4B0D4B1C780D4BBF
:100A80001A6864F3071542B904F0F004102C0AD177
:100A90002846BDE8384000F07BBF204629469047F5
:100AA0000028F1D038BD4FF0FF3038BD01000020E4
:100AB00000000020040500202DE9F04180460E468C
:100AC00017460024BC4235D23B1B022B0DD0032B12
:100AD00019D0012B19D1325D052161F3030562F3B1
:100AE0000F2501346FF317450AE03119305D4A785C
:100AF000062363F3030560F30F2562F31745023401
:100B00006FF31F650FE0072000E0042060F303058A
:100B10003019335D4178827863F30F2561F317450F
:100B200062F31F65033440462946FFF79DFF002806
:100B3000C8DA00E00020BDE8F081000030B5A1B0C7
:100B4000F0238DF80030134B7E2232258DF80320E0
:100B50001A788DF8045000240F258DF801408DF887
:100B600002408DF805208DF8065002AB0D5D5A1E2F
:100B700035B101341A4603F8015C0133642CF5D118
:100B8000F72102F8011B6946521AFFF795FF21B0C1
:100B900030BD00BF1505002000B589B0F0238DF8E9
:100BA000003000238DF801308DF802307E238DF85F
:100BB000033032238DF80430084B8DF806101B7873
:100BC0008DF80720F7218DF80810092269468DF865
:100BD0000530FFF771FF09B000BD00BF150500200B
:100BE000F0B5454E8BB0337804460D461746FFF7F7
:100BF000F1FC00287CDA31780D295AD001D829B1CE
:100C000069E00E2974D00F2965D15AE03B4B1DB124
:100C1000012D03D11F706BE01D7069E01878052865
:100C200029D011D8022820D004D801283DD120464F
:100C3000334937E003281BD0042836D100F0C0FA2E
:100C400030490246684623E0082826D006D8062800
:100C500019D0072829D100F0C1FA16E009281FD0C1
:100C60007F2822D1FFF7A0FE42E02046264919E066
:100C70002046264916E0684600F0B4FA00282046CF
:100C800009DA23490EE000F0A1FA2249024668463B
:100C900001F004F82046694604E020461E4901E0C0
:100CA0001E492046FFF74AFF22E020460E210D2272
:100CB00004E0022D1CD120460E211022FFF76CFF0C
:100CC00016E0174A0DB1012D01D1556010E05268B0
:100CD00072B92046F2E70E210A462046FFF75CFF74
:100CE0000F49054B0A7800206FF307020A7018704D
:100CF00000200BB0F0BD00BF080500203405002027
:100D0000183700083A3700081F3700083037000846
:100D10003F370008413700084437000856370008BD
:100D200018050020F72910B50A465AD82E4B197815
:100D300001F0080303F0FF041BB12C4B1B78834226
:100D40004CD1A0F11103062B48D9284B187004BBD5
:100D50002548037803F00703042B03D82448C05C1C
:100D6000904221D101F00701052903D121480178E2
:100D7000914219D15A1C1C4B197802F0070060F3FC
:100D80000201052819702CD9CAB242F00800187067
:100D900027E0130611D5F72A06D101F01001CBB2D6
:100DA00013B10221FFF71CFF0F4B134A19780020E3
:100DB0006FF307011970107010BD01F01004E4B258
:100DC00044B9094B197841F0100119700A4B2146BA
:100DD0001A7000E00121FFF703FF02E04FF0FF303F
:100DE00010BD002010BD00BF180500201405002014
:100DF00078370008150500200805002001F00F03D2
:100E00002DE9F0470F46C1F30728C1F307494FEA20
:100E1000116A03F1080101F00F010629064602D804
:100E2000002A58D17AE0B8F1F00F05D003F10C0098
:100E300000F00F01032929D83A49D1E9004554EAC5
:100E4000050023D106F0F004302C4FF000000CD048
:100E5000502C13D0102C19D1334C208006F00F00E9
:100E6000012404FA00F0088010E02F4C208006F0E6
:100E70000F00012404FA00F0488007E02A4C20808B
:100E800006F00F00012404FA00F08880991E0D2955
:100E900044D8DFE801F01E1E071B242443434343CC
:100EA00043434307B8F1F70F13D83046414607F0E4
:100EB0000F07FFF737FF0F2F30D049463046FFF7B7
:100EC00031FF30465146FFF72DFF27E0B8F1F70F0D
:100ED00005D91AB3304627F0F00190471EE01A1FDB
:100EE00012F0FF041AD030464146FFF71BFF012CD9
:100EF0000CD030464946FFF715FF022C05D030468E
:100F00005146FFF70FFFD04600E0C846B8F1F70F93
:100F100004D1044800220023C0E900230020BDE8DA
:100F2000F08700BF280500201605002013B50446F1
:100F300001A800F045FD002807DB0199C1F303106B
:100F400010302246FFF75AFFF2E72849D1E9002383
:100F500052EA030047D0264B1888B0F57A7F42D971
:100F60000A8862B1002142FA01F313F0010003D1B3
:100F700001311029F7D101461031C8B21AE04B886F
:100F80005BB143FA02F010F0010103D10132102AE3
:100F9000F7D10A463032D0B20CE0888850B140FA1E
:100FA00003F111F0010203D10133102BF7D11346E5
:100FB0005033D8B20F4B1A7802F00801C9B249B1C8
:100FC0000D490978814205D16FF307021A700B4B66
:100FD00000221A700A490A6802B1904703480022A9
:100FE0000023C0E9002300201CBD00BF280500200D
:100FF0001605002018050020140500200805002013
:101000003805002010B500F007FD044600F048F850
:10101000054B1A884FF6FF718A4240EA040001D05E
:1010200001321A8010BD00BF16050020114BF7B524
:101030001C680746E4B1C1F30764C1F30720C1F39C
:1010400007420D4D8DF8064001F00F0100246E5C43
:101050008DF804008DF805202546B54208DA01AA6E
:10106000044B515D1B683846984701350443F4E74B
:101070002046FEBD0C05002008370008012803D0DB
:10108000034B1870002070474FF0FF30704700BFCF
:1010900001000020014B1878704700BF15050020A3
:1010A0000020704713B5044600287AD11F20012183
:1010B00000F036FF3C4B00949A6802F00C000828C0
:1010C00002D1012000905DE0196841F001021A6030
:1010D0009C60186820F08471344821F480321A60D2
:1010E0005860196821F480221A60DC600194186845
:1010F00040F4803119602C4B1A6802F400300090E3
:1011000001994A1C0192009818B90199B1F5A06F94
:10111000F1D11B6813F4003218BF0122009200982D
:1011200001282FD1204B2248196C41F080521A64BB
:10113000016841F48042026098689860996841F4BF
:1011400000429A6098681B4A40F4A05199605A6026
:10115000186840F0807119601868134A8101FBD546
:10116000154B40F205611960906820F00301916011
:10117000936843F0020090600B4A916801F00C0301
:10118000082BF9D10D48002100F0A2FD4FF440706A
:1011900000F094FD009A012A14BF4FF0FF300020A8
:1011A00001E04FF0FF301CBD003802401030002439
:1011B0000070004008544007003C02400000000856
:1011C000014B1868704700BF002004E0024B1888EC
:1011D00081B28802704700BF227AFF1F4FF440306F
:1011E0007047000000230B4A591089180A78D90764
:1011F00058BF120902F00F02092A94BF302137218B
:101200008A18C2540133182BEDD10021017608460B
:10121000704700BF107AFF1F074B1A681AB9EFF327
:101220001081064801604FF0010080F310881A68B1
:10123000511C196000207047400500203C0500202B
:10124000074A13683BB1581E106038B905490A684F
:1012500082F3108802E04FF0FF30704700207047A3
:10126000400500203C0500200F291CD80F4BDA68F0
:10127000D343C3F30222C2F1040301FA03F10901CB
:1012800000F16043CAB203F56141012381F80023F4
:1012900042B200F01F00510903FA00F2044840F87E
:1012A0002120002070474FF0FF30704700ED00E034
:1012B00000E100E073B5054668460E46144600F0AE
:1012C0000EFE02238DF805300096062C29D8DFE8A3
:1012D00004F02604090F13181D0003208DF80400E4
:1012E000002302E000238DF804308DF8073012E06F
:1012F00000228DF80420F8E700218DF80410012366
:10130000F3E701208DF80400002302E001238DF8AB
:1013100004308DF806302846694600F093FD002021
:1013200001E06FF001007CBDC30710B5044605D590
:1013300006484FF480510522FFF7BCFF34F00F033D
:1013400014BF6FF00100002010BD00BF000C024070
:10135000C20707D5074B11F0010F4FF4805214BF9D
:101360001A835A8330F00F0314BF6FF0010000207E
:10137000704700BF000C024030B5012185B0044623
:10138000102000F0E5FD54204443611E0D4CADF8E3
:1013900004104FF6FF730025204601A90293ADF813
:1013A0000C50ADF8065000F01BFE01210A46204605
:1013B00000F060FE2046012100F050FE284605B0F6
:1013C00030BD00BF001000400348012108B5416254
:1013D00000F064FE002008BD00100040054810B574
:1013E0000121446A00F04FFE00280CBF20464FF058
:1013F000FF3010BD001000401FB50446B8B90120F1
:10140000014600F0B1FDA7204FF6FF73ADF80400D0
:1014100001A909480293ADF80C40ADF8064000F070
:10142000DFFD0548012100F019FE204601E04FF0E4
:10143000FF3004B010BD00BF00000140044B596AEA
:1014400089B25A6A521A92B28242FAD9002070477F
:101450000000014012230B8000487047B437000899
:1014600004230B8000487047B0370008704770476E
:101470007047704770470020704700207047000099
:1014800065230B8000487047F337000810B50B4BFD
:101490008CB098781A888DF8060002A80C46ADF832
:1014A0000420FFF79FFE0028ACBF02A801A8044952
:1014B000224601F065F902480CB010BDE43700087F
:1014C000E41B002070B5164B86B00A4601AC03F150
:1014D000100618685968254603C50833B3422C46E0
:1014E000F7D11888002328800E495818017859B17F
:1014F00020395F298CBF002101210133202B06D028
:101500000029F1D101A805E0002BFBD001E0002962
:10151000F8D00448044901F033F9034806B070BD1F
:1015200044370008E03F0008E41B0020FFF7CABF73
:10153000FFF7C8BF1146FFF7C5BF00001FB5084C35
:101540000A462068616801AB03C3A068054C1860B7
:10155000214601A801F014F9204604B010BD00BFD7
:10156000E7370008E41B0020022908B503D108462C
:10157000002100F067FA002008BD012908B503D159
:101580000846002100F056FA002008BD10B50221DF
:10159000044601F046FD2046812101F042FD002075
:1015A00010BD002000F08CB9012000F089B90000C6
:1015B000022110B5402204460B4601F011FD8121A5
:1015C00040220223204601F00BFD0221034A044879
:1015D000402301F03FFD002010BD00BFAC150020EE
:1015E000EC15002073B50120244C014600F098FC56
:1015F00000204FF4D853022503268DF806008DF8FD
:1016000007006946204600938DF804508DF8056068
:1016100000F018FC204608210A2200F069FC204650
:1016200009210A2200F064FC20460B210A2200F066
:101630005FFC0A2220460C2100F05AFC4FF4806126
:1016400000918DF804502046012569468DF8075019
:101650008DF8056000F0F6FB0A210A46204600F0EE
:1016600047FC29464FF4804000F07EFC802029464C
:1016700000F062FC284600F035FB7CBD0000024013
:1016800043200821FFF7F0BD014801F06FBD00BF06
:10169000EC15002080B2FFF7D1BE4FF47A735843A7
:1016A00080B2FFF7CBBE4FF0A0431868C0F3C04034
:1016B00070470000022837B5054642D8FFF7F3FF10
:1016C0000446FFF76EFF45BB14F0FF0F25D01E4CFC
:1016D0002046FFF787FF1D481D491E4AC4F8E40550
:1016E000C4F8E81520460121C4F8EC2501F0AEF855
:1016F000204601F050F9204601F0C0F92046FFF7DE
:10170000BFFF01210323204684F8101184F8123111
:10171000FFF74EFFFFF748FF11E00D4B0D4A009316
:1017200001210A4B084800F0BBFD074801F016FDF7
:101730004CF25030FFF782FE034801F007FD002015
:1017400001E04FF0FF303EBDEC150020803700086F
:1017500058380008C837000870B5254CD4F8E4356F
:10176000002B43D0FFF758FD22480178002939D0DB
:10177000D4F8DC63B608B3B2002B33D01E4A10880D
:1017800081B21BB2C1F5007293422BDA00241B4DCB
:1017900055F82450C5F3031010302946FFF746FCD6
:1017A00090B9174B174A198889B242F82150198805
:1017B0004A1C91B2B1F5007F198028BF18800E48ED
:1017C00003885A1C91B201800134301B03B2002BF4
:1017D000DDDC0849064800220A7040230221074A3E
:1017E00001F038FCBDE87040FFF72ABD70BD00BFB6
:1017F000EC1500205015002046050020AC150020F7
:1018000052150020500D0020234BD3F8E40510B5ED
:10181000002840D0FFF700FD20490A78002A36D181
:101820001F4B188881B2002931D01E4A1078002839
:101830002DD019888AB2102A98BF1988174B94BFE7
:1018400089B210210120187015480288531A9AB2E3
:10185000028000220BB29A4213DA134B13481C8801
:10186000A4B250F82440124840F8224018880130B1
:1018700080B2B0F5007F188001D3002018800132BB
:10188000E8E705480A4A81219B0001F000FCBDE819
:101890001040FFF7D5BC10BDEC1500204C0D00200A
:1018A000561500205A150020581500204C05002020
:1018B0005C150020002814BF4FF0FF300020704757
:1018C0000D49002310B50B800C4C0D4923800B8073
:1018D0000C4C0D4923700B800C4C0D4923801A468B
:1018E0000B800C4C0C4B012110B121701A7001E0DF
:1018F00022701970002010BD4605002052150020EE
:1019000048050020501500205615002044050020F1
:10191000581500205A1500204C0D002038B5184CE1
:101920002378054613B94FF0FF3038BD15480188BC
:101930008AB2B2F5FF7F07D9FFF766FF2378002B45
:10194000F1D06FF0010038BDFFF766FC0E4B0F4978
:10195000188882B2501C41F8225082B21A8019882D
:1019600088B2B0F5007F01D300221A80054B198898
:10197000481C82B21A80FFF763FC002038BD00BF0C
:101980005A15002056150020440500204C05002063
:1019900010B504462046FFF7C1FF831C08D1074B52
:1019A0001A8842F20F718A4207D8501C1880F1E75A
:1019B000002802DB014B00221A8010BD54150020C4
:1019C000124B10B50446188881B2D9B1FFF724FC38
:1019D0000F4B10491A8890B251F8202022601C88C1
:1019E000601C81B2B1F5007F198001D300221A80FA
:1019F000064C2388581E81B22180FFF721FC2288E3
:101A000090B210BD4FF0FF3010BD00BF4605002062
:101A100048050020500D002008B5054801F01EF8CB
:101A200018B9FFF799FEFFF7EFFE002008BD00BFD1
:101A3000EC150020024B00221A70FFF7E5BE00BF34
:101A40004C0D0020024B01221A70FFF785BE00BF2B
:101A50005015002020B10368197001684A1C02600B
:101A600070472DE9F843141E8046894601DC202783
:101A70000FE0002219F8021009B10132FAE7A24280
:101A8000B4BFC2EB04040C4613F0020F0CBF2027B6
:101A90003027DB070CD42546002D05DD40463946AE
:101AA000FFF7D8FF013DF7E724EAE476A41B00E046
:101AB00000263546C6EB0903595D21B14046FFF7C4
:101AC000C9FF0135F6E72646002E05DD40463946BA
:101AD000FFF7C0FF013EF7E7002CACBF2819281C18
:101AE000BDE8F8832DE9FF470C9EDDF83480814680
:101AF0000C4651B930228DF804208DF8051032467D
:101B000001A94346FFF7ADFF35E033B10A2A04D1FE
:101B1000002902DA4C42012700E0002704AD00232F
:101B200005F8013DAA466CB1B4FBF2F302FB134485
:101B3000092C02DD0E993A396418303405F8014D4C
:101B40001C46EFE787B14EB118F0020F06D04846A9
:101B50002D21FFF77FFF013E012705E02D2005F134
:101B6000FF3A05F8010C00274846514632464346E5
:101B7000FFF777FF381804B0BDE8F087F0B589B0FB
:101B800006460D46059200242B7823B1252B79D1EA
:101B900068786A1C28B9002E7BD030680022027059
:101BA00077E025286DD02D2802D1AA1C012300E062
:101BB0000023174601323978302902D143F002035D
:101BC000F7E700223978A1F130005FFA80FC3D464A
:101BD0000137BCF1090F03D80A2505FB0202F1E722
:101BE000732909D1059F391D059139682A4F30465F
:101BF000002908BF394641E064290ED18DE80C0068
:101C0000059961230293081D096805900A22304650
:101C10000123FFF767FF241839E0782906D10599D9
:101C2000081D8DE80C000590612207E058290AD1B3
:101C30000599081D8DE80C0005904122029230465E
:101C4000096810220BE075290BD18DE80C0005996D
:101C500061230293081D096805900A22304600237B
:101C6000D7E7632913D10599081D0968059000205D
:101C70008DF81C108DF81D0007A93046FFF7F1FE06
:101C8000C9E7154630462978FFF7E4FE01340135EF
:101C90007AE7204609B0F0BD743800080EB40FB5DD
:101CA00005AA019052F8041B01A80392FFF766FFF2
:101CB00004B05DF804EB03B07047000040F0BF6073
:101CC000024B40F40031D960704700BF00ED00E0E6
:101CD00021F0604121F07F02014B10439860704772
:101CE00000ED00E0014B5861704700BF003C01402F
:101CF000024B1A6842F4006018607047003C0240D2
:101D0000024B1A6842F4805018607047003C024051
:101D1000044B1A69002A04DA034800F1883158603C
:101D200059607047003C024023016745024B1A6925
:101D300042F0004018617047003C0240014BD860FF
:101D4000704700BF003C02400B4BDA68D0030DD453
:101D5000D868C1060CD4D96811F0EF0F0AD1DB683E
:101D600013F0020F0CBF08200720704701207047B6
:101D70000520704706207047003C024007B5082345
:101D80008DF80730FFF7E0FF8DF807009DF807009A
:101D90000128F7D09DF807000EBD000070B505467C
:101DA0000E46FFF7EBFF082813D10A4C236923F4F2
:101DB00040702061216941F400722261236943F07F
:101DC000010020612E60FFF7D9FF216921F0010297
:101DD000226170BD003C024070B5064641B1012948
:101DE00008D0022914BF4FF440754FF4007503E08A
:101DF0000D4601E04FF48075FFF7C0FF08281ED1A3
:101E00000F4C236923F44070206121690D43256143
:101E1000226922F0F8032361206940F002010E4399
:101E20002661226942F480332361FFF7A7FF21690D
:101E300021F002022261236923F0F801216170BDC3
:101E4000003C0240F0B50E680022012303FA02F3C1
:101E500003EA06059D423ED107680C79530027FA34
:101E600003F707F00307A7420DD007684FF0030CF4
:101E70000CFA03FC27EA0C070760076804FA03FC66
:101E80004CEA07070760013C012C17D88768032438
:101E900004FA03F427EA040787604C79876804FA98
:101EA00003F43C438460446824EA05058C7945606A
:101EB000456804FA02F4A4B22C434460C5680324C4
:101EC00004FA03F425EA0405C560CD79C46805FA6F
:101ED00003F32343C3600132102AB6D1F0BD0021C1
:101EE0004FF6FF730360017141718171C1717047D9
:101EF00001F00703C908083130B59B0050F82150A4
:101F00000F2404FA03F425EA040440F8214050F8B1
:101F1000214002FA03F2144340F8214030BD000092
:101F2000044B1A6B09B1104301E022EA0000186368
:101F3000704700BF00380240044B5A6B09B1104390
:101F400001E022EA00005863704700BF00380240F9
:101F5000044B1A6C09B1104301E022EA0000186436
:101F6000704700BF00380240044B5A6C09B110435F
:101F700001E022EA00005864704700BF00380240C8
:101F8000044B1A6909B1104301E022EA000018610C
:101F9000704700BF00380240044B5A6909B1104332
:101FA00001E022EA00005861704700BF003802409B
:101FB000044B1A6A09B1104301E022EA00001862DA
:101FC000704700BF00380240044B5A6A09B1104301
:101FD00001E022EA00005862704700BF003802406A
:101FE0001C4A038890429BB212D002F58062904254
:101FF0000ED0B0F1804F0BD0A2F58032904207D0C6
:1020000002F58062904203D002F58062904203D1D3
:102010004A8823F0700313430F4A904208D002F518
:102020008062904204D023F440730A899BB2134328
:1020300003804B680A88C362064B0285984203D02E
:1020400003F58062904201D1897A0186012383825F
:10205000704700BF0000014000100040038819B124
:1020600099B241F0010303E023F001010A04130CCB
:102070000380704783899BB20AB1194301E023EAC8
:10208000010181817047038A828911EA030092B2BB
:1020900003D011420CBF002001207047C9438AB20F
:1020A00002827047D0F8E83510B5044618698047B9
:1020B000032184F81211002010BD08B590F81231E8
:1020C000042180F8133180F81211D0F8E805C268B5
:1020D0009047002008BD08B5D0F8E435D96901B1B2
:1020E0008847002008BD08B5D0F8E435196A88474C
:1020F000002008BD08B5D0F8E435596A88470020AB
:1021000008BD002110B5402204460B4600F068FFD0
:10211000802140220023204600F062FFD4F8E80529
:10212000012384F812314168A0788847002010BD4F
:1021300013B56946044600F023F99DF8001001F03C
:102140001F03012B0CD006D3022B0ED1204669466B
:1021500000F046F90EE02046694600F0BBF909E0C0
:102160002046694600F09EF904E0204601F0800117
:1021700000F0A8FF00201CBD70B50446002947D11F
:1021800090F81131022B37D1D0F83821D0F8243112
:102190009A4211D9D21AC0F83821C078012804D146
:1021A000D4F82811CB18C4F828312046D4F82811C7
:1021B00092B200F0B5F81FE0D0F83C51B5FBF3F651
:1021C00003FB16565EB99D4209D3D0F840219542D3
:1021D00005D2324600F0A4F8C4F840610CE0D4F80F
:1021E000E405C16829B194F81231032B01D12046CE
:1021F0008847204600F0B5F894F81621012A10D13E
:10220000094920690B680022436084F8162108E020
:10221000D0F8E4355B6923B190F81221032A00D18C
:102220009847002070BD00BFE01B002010B5044699
:1022300059BB90F81111032930D1D0F89023D0F870
:102240007C339A4214D9D21AC0F89023C07801285E
:1022500004D1D4F88013C818C4F880039A4228BF68
:102260001A462046D4F8801392B200F062F815E0C6
:10227000D0F8E4150B6923B190F81221032A00D19C
:102280009847204600F05EF808E0D0F8E4359B69F6
:1022900023B190F81221032A00D19847002010BDE5
:1022A0002DE9F041069F0446164698460D46FFF775
:1022B00099F920462946C4F8E485C4F8E875C4F8BD
:1022C000EC6500F042FED4F8E835186880472046F7
:1022D000BDE8F041FFF7D4B9D0F8E43510B50446B5
:1022E0001A689047D4F8E80581688847002010BD37
:1022F00008B5D0F8E4355A689047002008BD38B5D5
:1023000004460D46C4F83C21C4F838211346022285
:1023100080F8112100212A4600F0B9FE002038BDC6
:1023200010B50C4613460021224600F0B0FE0020F6
:1023300010BD10B50C4613460021224600F08AFE5F
:10234000002010BD0021042310B50A46044680F881
:1023500011310B4600F09BFE204600F0D8FD002016
:1023600010BD0021052310B50A46044680F811313E
:102370000B4600F06FFE204600F0C9FD002010BDA6
:1023800090F8CC350B7090F8CD254A7090F8CE358A
:1023900090F8CF2503EB02224A8090F8D03590F8D0
:1023A000D12503EB02228A8090F8D23590F8D3250C
:1023B00003EB022293B2CB800121C0F8403180F8B8
:1023C0001111704710B58021044600F07BFE2046B5
:1023D000002100F077FE2046BDE8104000F097BDD8
:1023E00070B54E788A88012E04460D46D3B211D0BE
:1023F00029D3032E51D190F81221022A2AD0032A80
:1024000049D14988A9B9A3B1802B12D0194600F04F
:1024100059FE0EE090F81221022A1BD0032A3AD16D
:102420004988002939D153B1802B08D0194600F0D2
:1024300067FED4F8E405294683682046984720467D
:10244000FFF780FF29E090F81251022D02D0032DF2
:1024500021D106E00BB3802B1FD0194600F032FECD
:102460001BE012F0800F4FF0280006D002F07F0230
:1024700000FB024191F81E3103E000FB034393F897
:102480007633074803B10123036005492046022241
:10249000FFF735FF01E0FFF795FF002070BD00BF9B
:1024A000A415002038B590F81231032B04460D46D0
:1024B0000CD10A79012A09D8D0F8E4359A689047F6
:1024C000E88828B92046FFF73DFF01E0FFF77AFFD3
:1024D000002038BD70B54B78052BA2B004460D46E0
:1024E00000F0838008D8012B00F01581C0F0DA805D
:1024F000032B40F03381E6E0082B00F0C58003D8C1
:10250000062B40F02B8106E0092B00F08E80552B26
:1025100040F024810FE14888010A4B1E062B00F28F
:102520001D81DFE813F007001A0027001B011B01C3
:102530001B011B01D4F8EC15A0780A680DF1060107
:1025400090470146E888402803D094F81231012BC7
:102550003BD10822ADF8062037E0D4F8E4050DF1B0
:102560000601826AA0789047022343700146C4F8AE
:10257000F0052AE0C1B2A07805291FD8DFE801F0F4
:1025800003070B0F1317D4F8EC25536812E0D4F8A7
:10259000EC158B680EE0D4F8EC35DB680AE0D4F873
:1025A000EC25136906E0D4F8EC154B6902E0D4F889
:1025B000EC2593690DF10601984705E0D4F8E43560
:1025C0000DF10602DB6A98470146BDF806000028B7
:1025D00000F0C880EA88002A00F0C480824228BF48
:1025E0000246ADF806202046B5E08A88002A40F071
:1025F000B580C988002940F0B1806E8890F812211A
:1026000006F07F03032A1E4600F0A88080F81431EC
:10261000194600F093FD2046FFF794FE0EB102200C
:1026200000E0012084F812019CE08B784F4A012BD6
:10263000137000F2938090F81221022A03D0032A2B
:1026400040F08E8008E0002B61D00121032380F848
:10265000101180F8123114E043B9022180F81211F0
:1026600080F810311946FFF743FE50E090F8101142
:1026700001294CD0FFF73CFE3C480178204684F805
:102680001011FFF729FE42E0CA88012A66D190F8AE
:102690001231022B04D0032B62D100F588715AE06D
:1026A000334958E090F81221931E012B58D8314835
:1026B000D4F81821002101600AB1022303602046EA
:1026C0002C49022247E04B88012B2DD0022B49D107
:1026D0008A8812F0FF0F45D10069110A4A1E43682B
:1026E000042A0FD8DFE802F0030507090B000120D8
:1026F00006E0022004E0032002E0042000E00520C0
:1027000060F306131C490B60012384F81631204640
:10271000FFF718FE26E090F81221931E012B1FD818
:102720004A88012A1ED10023D4F8E425C4F81831C0
:1027300093689847EBE70978C0290FD16B886BB98C
:10274000EE88802E0AD10D49324602A800F05AFFC9
:10275000204602A93246FFF7D2FD03E02046294673
:10276000FFF730FE002022B070BD00BFA015002092
:10277000A81500209C150020E01B00207B380008D5
:1027800030B5C0B10023C55CDCB20133002DFAD1F5
:10279000631C5B00138003220B704A700138022314
:1027A00010F8012F3AB15C1CCA54E2B20233002483
:1027B0008C54DBB2F4E730BD37B50023104C0193E5
:1027C00005460320FEF766FFE8680269013C0192B6
:1027D00013D001990029F4DA019B43F00102019220
:1027E0000199074A01610369013A019302D00199F5
:1027F000C907F8D40320FEF74DFF00203EBD00BFFF
:10280000410D030030B5C4786CB900EB820003338E
:10281000D0F8D0509B1022469A4204D051F82200A2
:1028200001322860F8E7002030BD10B50332D0F83F
:10283000D0409210002393424FEA830004D02068D6
:1028400041F823000133F6E7081810BDF0B5002366
:10285000012240240129C370827084800CD102239C
:10286000082604224FF4A0740372C17206704270ED
:10287000C4804FF0A04309E041B90C23C17203703A
:1028800006214FF4A065204B4170C58003F500611F
:1028900045780161C3600246194600240432AC4207
:1028A00001F1200608D201F5106701F530611165CC
:1028B000576101343146F1E703F5806403F588611F
:1028C00044610478C0F8CC10002203F5A061A24254
:1028D00006D200EB82050132C5F890102031F6E7F0
:1028E00003F580510022A24207D200EB820501329B
:1028F000C5F8D01001F58051F5E703F56063C0F825
:102900000C310020F0BD00BF0000044038B5037A50
:102910000025012B0446C3681FD1986B617A65F3CB
:10292000104009B140F480109863DA686FF38612A2
:102930006FF396526FF351426FF3D342DA60204641
:10294000FFF73AFFE378012B19D1052161F3440524
:10295000E06845F02005856011E0DA6842F040014A
:10296000D960FFF729FF607AE36800280CBF4FF4B5
:1029700034124FF474129A631420FEF78EFEE2783C
:10298000012A06D1E368996821F03E0040F02A024E
:102990009A60002038BDC3689A6842F001009860D0
:1029A00000207047C3689A6822F0010098600020F8
:1029B0007047000007B500230193019A42F02003FD
:1029C0000193019A094B61F38A120192C26801983E
:1029D00010611169013B019102D001988006F8D481
:1029E0000320FEF757FE00200EBD00BF410D03007F
:1029F00007B500230193019941F010020192C068CC
:102A0000019B074A03610169013A019102D0019BD0
:102A1000D906F8D40320FEF73DFE00200EBD00BF0E
:102A2000410D0300C26808B5D36801296FF35D73D7
:102A30006FF39E7302D143F0005302E009B943F0F3
:102A400080433220D360FEF728FE002008BDC36813
:102A5000586900F0010181F001007047C3685869AE
:102A600000F001007047C3685A69986910407047C8
:102A700003691A6861F301021A60704710B5C368F0
:102A800000226FF080414FF0FF349A6159615C6021
:102A900059610A499961C07890420CBF10211146D2
:102AA00041F4872040F00811986941F4401120EA70
:102AB000010001439961104610BD00BF000800806D
:102AC00038B5D0F80C31016900221A6015460A6841
:102AD00065F3CC220A60C37A012B04461BD1032183
:102AE000FFF7C6FFE068C02380214FF4800263F344
:102AF0000F05416261F31F4561F30F024FF4A071AE
:102B00008262C0F8045161F30F056FF31F45C0F8EE
:102B10000851C0F80C5110212046FFF74BFF20460A
:102B2000FFF766FF206900234FF0FF320361436126
:102B30008261C36161788B4214D204EB830201335A
:102B400090690168C1F3076202F08001CAB2002AED
:102B500014BF4FF09041002101600022FF2102616B
:102B60008160E7E700236078834214D204EB83009E
:102B70000133426D1168C1F3076000F08001C8B2F3
:102B8000002814BF4FF09041002111600020FF2168
:102B900010619160E7E723691A6942F48071196155
:102BA000E078012804D1054A402161F359421A63B3
:102BB0002046FFF763FF002038BD00BF030101007E
:102BC00003699868C0F341014B1E022B02D8024AE8
:102BD000D05C704703207047FB38000803698169A7
:102BE00010B59C680A68C4F34100022802D06FF354
:102BF0000A0202E0032060F30A020A60596841F405
:102C000080725A60002010BD30B54D780B780022DC
:102C1000012D00EB830405D105FA03F5A46965F3E2
:102C20000F0205E0012505FA03F3646D63F31F420B
:102C30002368C3F3072505F08005EDB26DB98D68F3
:102C400065F30A03CD78C98865F3934361F399531B
:102C500043F0805343F4004121600069C3691A4383
:102C6000C261002030BD30B54D780B780024012DB5
:102C7000224600EB830105D105FA03F3896963F36A
:102C80000F0205E0012505FA03F3496D63F31F42C6
:102C900000696FF3CF340C60C16921EA0202C2619E
:102CA000002030BD70B54E780A78012E0B4600EB3F
:102CB000820148D18D695C6929682A6964F312022E
:102CC00014B966F3DC420BE09E68A419013CB4FB26
:102CD000F6F6DC7866F3DC42012C08BF64F35E7222
:102CE0002A61C278012A06D11A7800EB82041A6997
:102CF000A46962610CE0DA78012A09D05A693AB114
:102D000002691C78556B012606FA04F42C435463BF
:102D1000DA78012A07D102699268D20554BF41F0DE
:102D2000005141F080511A7800EB820241F00441D9
:102D300092691160D978012937D1D9681A789B8AAC
:102D4000FFF760FD31E04D6D5E692A689C68296976
:102D50002EB964F31201012464F3DC410AE0361950
:102D6000013EB6FBF4F666F3DC41B605B60D7443DE
:102D700064F312012961C178012905D11C7800EBA7
:102D800084014C6D19696161D978012906D159799D
:102D900011B142F0005201E042F080521B7800EB8A
:102DA000830042F00441426D1160002070BD73B594
:102DB0004D78012D3DD183694A691E681C690094D4
:102DC000E4B242B962F306049DF802208DF8004097
:102DD00065F3C4020EE08D68AA428ABF4D6162F3BA
:102DE000060465F306049DF802208DF800400124D6
:102DF00064F3C4028DF80220009A1A61C278012A95
:102E000005D10C7800EB840294690A69626146F08E
:102E100004461E60C378002B34D14A69002A31D0A1
:102E200003690A78586B012101FA02F202435A63DE
:102E300028E00B784E6900EB8302536D8A681D68A9
:102E40001C690094E4B206B14A6162F306049DF87D
:102E500002208DF80040012464F3C4028DF80220A2
:102E6000009A1A61C378012B05D10A7800EB82031E
:102E70005A6D0B695361097800EB810045F00445F8
:102E8000426D156000207CBD4B780978012B00EB6A
:102E900081000DD180690368C3F3076202F08001ED
:102EA000CAB20AB143F0804343F40011016004E068
:102EB000436D1A6842F400111960002070474B7886
:102EC000012B0B78C97800EB83000CBF8269426D3F
:102ED0001368881E6FF35553012898BF43F0805341
:102EE00013600020704703699A69D8691040000C8C
:102EF000704700EB810102694B6D99685069084089
:102F0000704703699869D969084080B2704782B0F8
:102F100000230093C021012200238DF8031062F3E7
:102F2000C40318218DF802308DF80010436D009A0B
:102F30001A61C178012906D100F2CC5058611A6893
:102F40004FF080221A6002B0704710B50446FFF7B8
:102F50007DFC012384F81231002384F81431627857
:102F6000934213D2282202FB034101F58E72012005
:102F700081F81D0181F81C31A1F822314020002187
:102F8000D1709060D16051610133E8E7002360782F
:102F9000834213D2282101FB034000F55D7200211A
:102FA00080F87433A0F87A3380F8751380F87713BB
:102FB00040209060D16051610133E8E72046FFF77F
:102FC000F1FC2046FFF7A2FC00212046FFF72AFD76
:102FD0002046FFF775FD2046BDE81040FFF7DBBC3B
:102FE00070B5CDB201F07F044FF0280606FB040453
:102FF00015F0800F14BF04F58E7404F55D7401F0B4
:103000007F01ED0921706570A260E37005B1E18078
:10301000022B01D1002323712146FFF7F5FD00208B
:1030200070BD10B5CAB201F07F034FF0280404FB55
:10303000030312F0800F14BF03F58E7303F55D7365
:1030400001F07F01D20919705A701946FFF70BFE83
:10305000002010BD38B501F07F04282505FB0405CC
:1030600005F55D7185F874434B610023CA608B617F
:103070004B70C378012B05F55C7508BF0A6114B964
:10308000FFF795FE01E0FFF70DFE002038BD70B59B
:1030900001F07F04282505FB040505F58E71012646
:1030A000CA600A61002285F81C414E7005F58C75D6
:1030B0008A614B6114B9FFF77AFE01E0FFF7F2FD78
:1030C000002070BDCAB212F0800F10B54FF0280377
:1030D00006D001F07F0403FB040303F58E7303E0C5
:1030E00003FB010404F55D73D209012401F07F01A3
:1030F00019709C705A701946FFF7C6FE002010BD6B
:10310000CAB212F0800F10B54FF0280306D001F0BC
:103110007F0403FB040303F58E7303E003FB010448
:1031200004F55D730024D20901F07F0119709C70D1
:103130005A701946FFF7C3FE204610BD02690023EE
:1031400061F30A1311680B431360704703695A68EF
:1031500003206FF341025A60FEF79FBA03695A6871
:1031600042F0020058600320FEF797BA2DE9F04FB5
:1031700085B00446FFF76BFC08B900203AE2204610
:10318000FFF771FC07460028F7D0C0F3074A0AF0A2
:103190000800C0B2002856D02046FFF7A4FEA34680
:1031A000804626464FF00009B8F1000F4AD018F0CB
:1031B000010F3FD05FFA89F3194620460093FFF7CD
:1031C00098FE10F0010F0546009B20D0706D012580
:1031D0008560E178A94207D10269DBF87C13C2F36C
:1031E00012000A1ACBF88C237148016820460A683D
:1031F00019469047E378012B09D1B9F1000F06D1A8
:1032000094F81101052802D12046FFF780FE05F051
:103210000201CAB212B1736D02259D6005F008006B
:10322000C1B239B1624A15682046AB689847706DE3
:103230000821816009F101094FEA580804360BF1B1
:10324000280BB1E701200AF0040A5FFA8AF3002B89
:1032500000F0B1802046FFF754FE264681464FF02D
:103260000008B9F1000F00F0A58019F0010F00F07F
:1032700099805FFA88FA236904EB8A0019695D6B0B
:10328000826925FA0AF59068EA01D5B20D43054036
:10329000EA071BD5586B464A012505FA08F120EAD2
:1032A00001005863B36910689D6051464368204629
:1032B0009847E178A94209D1B8F1000F06D194F8F6
:1032C0001121042A02D12046FFF721FE05F0080053
:1032D000C3B213B1B16908258D6005F01002D0B2F8
:1032E00010B1B36910259D6005F04001CAB212B15A
:1032F000B0694025856005F00203D9B211B1B26909
:103300000225956025F07F0010F0FF0F4AD028239A
:1033100003FB084101F58C75019504356869AB69BB
:10332000AA68C11AB069914238BF0A4602F1030C7B
:1033300082694FEA9C0C93B2634530D9A9696A69E6
:1033400091422CD25AB3A868C1EB020B834528BF27
:1033500083460BF1030E4FEA9E0CE968CDF800C0DE
:1033600052461FFA8BF32046FFF74CFAEB68AA6926
:10337000DDF800C003EB0B010BEB0200E960A86174
:103380006969B36988429A69D5D301982569027938
:103390006B6B012101FA02F023EA00036B63B5694C
:1033A0008022AA6008F101084FEA5909043658E75B
:1033B000040000200120FDB205F00201CAB212B1E2
:1033C000E36802215961C7F3076202F08003D9B2B2
:1033D000C9B1A07A40B1D4F80C31D4F80C216FF304
:1033E00041036FF3000313602169844A486820F0A9
:1033F00001034B60116820468B699847E0684FF0E5
:10340000004242610120C7F3072808F00801CBB24F
:103410006BB37A4994F812210B6800208DF80F00E5
:103420008DF80F2020465A6990472069E36882682A
:103430004FF400615961A07AC0B1D30716D594F852
:103440001521012A12D19DF80F30032B0ED1D4F88B
:103450000C11086840F001020A600B6843F0030099
:10346000086067490A6942F006030B61012005F014
:103470000801CAB242B1614803682046D96888474A
:10348000E06808224261012005F01005EDB2002D30
:1034900035D0E668B36923F01001B161366A28229D
:1034A00006F00F00C6F3434302FB0045022B05F56F
:1034B0005D750DD0062B1CD104F2CC51204608229C
:1034C000FFF7B3F9A969C6F30A168819A86110E0D5
:1034D00047F6F072324062B1C6F30A16E968324626
:1034E0002046FFF7A2F9EB68A86999198619E960E7
:1034F000AE61E3689A6942F010019961012008F019
:103500001003DAB2002A34D026697068002520F052
:103510000101716020462946FFF74CFA23462A46EE
:1035200066780433B24206D25E69FF21B160186D3D
:1035300001328160F4E70126206966F30F050B2153
:103540004FF0FF3266F31F458261C5614161016141
:1035500003686FF30A1303602046FFF7D8FC27497E
:10356000E0680B684FF4805242611A692046904728
:10357000304608F020085FFA88F1E9B12046FFF7ED
:103580002DFBE5682046ED68FFF71AFB032806D1FE
:1035900000214FF40070A170A080092204E00120F6
:1035A0004023A070A3800522E36862F38D254FF4C9
:1035B0000052DD6001205A61C7F3074707F0100190
:1035C000CBB24BB10D4802682046D1698847E36809
:1035D0004FF480105861012007F02007FFB24FB16F
:1035E000064A116820460B6A9847E0684FF40012BB
:1035F0004261012005B0BDE8F08F00BF040000204B
:1036000000ED00E010B50023934203D0CC5CC4541D
:103610000133F9E710BD0000000002408000000007
:10362000000402400080000000040240200000006E
:1036300000000240200000000004024000200000C2
:1036400000040240080000000004024004000000E2
:10365000000C0240000800000004024000100000BE
:10366000000C024000040000000002400080000046
:103670000004024000010000FFFFFFFF0000000007
:1036800000000000004000080800000000000000EA
:1036900000800008100000000000000000C00008CA
:1036A00018000000000000000000010820000000D9
:1036B00000000000000002082800000000000000D8
:1036C00000000408300000000000000000000608B0
:1036D0003800000000000000000008084000000062
:1036E0000000000000000A08480000000000000080
:1036F00000000C08500000000000000000000E0850
:103700005800000000000000000002030301020353
:1037100003030303020203014D494F5333320053A5
:10372000544D33324634444953434F564552590061
:1037300053544D3332463478780025303878003F82
:10374000002564004D494F53333220426F6F746C33
:103750006F6164657200286329203230313420544F
:103760002E204B6C6F7365002025303258002020CE
:103770002000253038582000F000007E3200000084
:10378000B11500088D15000877140008000000002E
:103790007B1400087B150008691500080000000074
:1037A000000000000000000081140008351500082A
:1037B000040309041201000200000040C016FE03C9
:1037C00010100102030100005514000861140008E4
:1037D0003D150008C51400088D14000831150008B7
:1037E0002D1500083432006D696469626F782E6FA0
:1037F00072670009026500020104803209040000BA
:10380000000101000209240100010900010109046D
:103810000100020103000207240100014100062407
:10382000020101000624020202000924030103012F
:10383000020100092403020401010100090502023A
:10384000400000000005250101010905810240003A
:1038500000000005250101036D1400086F14000825
:10386000A9150008731400087514000871140008E5
:10387000A3150008286E756C6C2900D10FED54CF8C
:10388000C5FBB89752389138910E7D0FED389301F2
:10389000910E9100C11F020E91F7041040006E10AE
:1038A0006EE76A0000000000000000000000000059
:1038B0000000000000000000000400000000000004
:1038C000000000000000002F55461F00D848403778
:1038D0006AF76A00300000C7062E734A2C137BE992
:1038E0007F32002A280D9BFE0B21EF422A2F73B551
:1038F000B8DA76E679BF0FEB793E0B0201020000E1
:1039000010100000080000202D2200087921000876
:1039100031210008D720000803210008BB2000083F
:10392000A5200008E7200008F5200008000000009E
:103930000000000000000000FFFFFFFFFFFFFFFF8F
:10394000FFFFFFFFFFFFFFFFFFFFFFFFFFFFFFFF87
:10395000FFFFFFFFFFFFFFFFFFFFFFFFFFFFFFFF77
:10396000FFFFFFFFFFFFFFFFFFFFFFFFFFFFFFFF67
:10397000FFFFFFFFFFFFFFFFFFFFFFFFFFFFFFFF57
:1040000000000220915802088D5802084547020816
:104010008D5802088D5802088D58020800000000D3
:104020000000000000000000000000000154020831
:104030008D5802080000000071540208AD540208B7
:104040008D5802088D5802088D5802088D580208B4
:104050008D5802088D5802088D5802088D580208A4
:104060008D5802088D5802088D5802088D58020894
:104070008D580208FD950208DD9502088D5802084A
:104080008D5802088D5802088D5802088D58020874
:104090008D5802088D5802088D5802088D58020864
:1040A0008D5802088D5802088D5802088D58020854
:1040B000199D02083D9D02088D58020895B5020819
:1040C000A1B502087DB5020889B502088D5802081D
:1040D0008D580208DDB20208ADB102081DB2020817
:1040E0008D5802088D5802088D5802088D58020814
:1040F0008D5802088D5802088D5802088D58020804
:104100008D5802088D580208619D02088D580208DA
:104110008D5802082DB302088D5802088D580208E8
:1041200019A102088D580208BD9502088D58020891
:104130008D5802088D5802088D5802088D580208C3
:104140008D5802088D5802088D58020849A40208AB
:104150008D5802088D5802088D5802088DB2020849
:104160008D5802088D5802088D5802088D58020893
:104170008D5802088D5802088D5802088D58020883
:084180008D5802088D58020859
:020000040801F1
:1000000008B5114A137813F0030005D0507818B1E1
:1000100020288CBF0020012040B919F001FC60F0BD
:10002000FF0188B22CF040F92CF044F906F0E0FF13
:1000300025F03CFC15F0F2FE25F0ACFB0348BDE8D2
:10004000084015F02BBD00BFC49901200100010834
:1000500038B505460C4600F009FC2146284605F057
:1000600017F92146284607F0C3FD2846214621F00E
:100070007DF8002038BD0000034B1B7813B100232E
:1000800006F00ABA704700BFF895012008B500F0E5
:10009000D5FB00204FF4FA61024A034B2DF098F98A
:1000A000002008BD38EC030846EC030821F03CBDF5
:1000B00010B50C4621F0E8F8012802D120462BF0BB
:1000C0000FFE002010BD000010B54FF0FF3019F0FA
:1000D000EDFA642019F056FE454B46484649002487
:1000E00002221C7002700C70E0B20421013419F07D
:1000F00051FB082CF8D1002008F0DAFB002026F094
:10010000F3FD002026F0B8FF042015F0A6F83B4BC5
:100110001860042015F0A1F8394A1060042015F089
:100120009CF838490860042015F097F8364B1860A1
:10013000042015F092F8354A1060354816F08EFF0D
:10014000344816F037FC344816F02EFC334816F0CD
:1001500097FF002021F0ECFB002000F023FB0020A3
:1001600020F06AFF002001F039FD002005F060FA60
:10017000002005F01FFB002027F054FF002005F0B1
:1001800077FC002005F0DCFD002007F0DFFB0020FD
:1001900005F056FF002006F079F9002007F0CCFBAF
:1001A000002006F021FA002006F06CFC002023F06D
:1001B000E5FA00202BF0A4FF002014F033F9002012
:1001C00012F0DCFB002021F071FD002008F0B0FCF3
:1001D000002008F047FC00202BF05EFF002000F01C
:1001E00097FB25F0D7FA0E48BDE8104015F056BC35
:1001F000F895012000960120E0000020F4950120F0
:1002000008960120FC950120F0950120049601201C
:1002100051000108B1000108AD0001088D0001087E
:10022000010001082DE9F04700202DF0A3F808F0A7
:10023000B5FB18F029FC002506462C4618F024FCD6
:10024000B042FBD018F020FC0646AD4B01211868E7
:1002500015F0A7F801280746F7D1AA4815F0FEFFC8
:100260002CF0DAFB01F098FD28B901F00DFE00300A
:1002700018BF012000E03846C0B22DF07BF82DF009
:100280007FF8002846D101F087FD002842D101F017
:10029000FBFD00283ED19C480178D1F1010738BF11
:1002A000002777B308F07AFB2DF0AAF981462DF0EC
:1002B000B3F980462DF0BCF91FFA88F182B25FFADB
:1002C00089F007F0F3FD2BF0DDFF4FF0050808FB88
:1002D00000F007F011FF2DF093F982462DF09CF904
:1002E00081462DF0A5F9421C1FFA89F192B25FFAFE
:1002F0008AF007F0DBFD2BF0C5FF08FB00F007F0EC
:10030000FBFE384603F0A8FC12F056F87E4B0120A5
:10031000187012E07C490A7852B101F03DFD18B125
:1003200001202DF0D1F903E001F0AEFD0028F7D156
:10033000754B00271F7012F03FF87149734F086822
:1003400014F076FF21F0CEFB05F09EFB00F02CFEB2
:100350003A78002A40F08B800134A4B2B4F57A7F59
:10036000C0F085806A480121006815F01AF801285C
:10037000F8D129F09BFF0128074610D12AF00EF88A
:100380000146644816F050FA2BF0B2FD384608F0EA
:10039000EDFB384604F0E8FA4FF47A7460E0022886
:1003A0001ED15D4816F040FA08F0FEFB2BF0A0FDD0
:1003B0005A4808F075FC524F0121386814F0F1FFDB
:1003C0000128F8D100200146024607F06FFD54488D
:1003D00007F066FE07F09CFE386814F029FF3EE047
:1003E00003283CD129F0BAFF98B94E4816F01CFA00
:1003F0004A4808F055FC424C0121206814F0D1FF16
:100400000128F8D100200146024607F04FFD44487C
:1004100015E029F0A9FFD0B9434816F005FA434882
:1004200008F03EFC364C0121206814F0BAFF012888
:10043000F8D100200146024607F038FD3C4807F09D
:100440002FFE07F065FE206814F0F2FE04E00020A5
:1004500008F026FC08F0BAFB364B01211970002485
:1004600000200FF0C1FC2A4A106814F0E1FEDFF80A
:100470009C8098F8000000283FF4E0AE244908680A
:10048000012114F08EFF0128F8D198F800301F4F99
:10049000022B1FD0032B02D0012B24D103E01AF032
:1004A00057F800231EE0244D0121286814F079FF3D
:1004B0000128F8D100202BF015FE0028134801DB9D
:1004C000022200E003221C490270086814F0B0FE0A
:1004D000002508E02BF009FE55B100202BF00AFEA4
:1004E00008B903233B700A4F386814F0A1FEA5E653
:1004F00028462BF0FFFD051C18BF0125F3E700BFC0
:10050000F09501200AA5040800000020E00000206A
:10051000F495012052EC030869EC03087FEC030812
:100520008AEC03089EEC0308B1EC0308D7EC03083F
:10053000DEEC0308F89501200496012008B519F0B7
:1005400013F9C143012019F0DDF8094B187870B197
:1005500006F0EEFD07F0C8F806F098FE05F068FF1B
:10056000044826F049FCBDE8084025F065BA08BDFE
:10057000F89501207900010808F024BA38B5C1F3D4
:100580000723F72B05460C4609D801F00F000F286A
:1005900009D001F10C0101F00F02032A03D928460A
:1005A000214604F09DFB2146284607F0FFF921462D
:1005B000284620F05DFD2846214621F0EFFA102D57
:1005C00005D0B5F12003584250EB030200E00122B0
:1005D00028462146BDE8384021F036BE70B5164B9E
:1005E000187840B315F024FA00240646134901EBAD
:1005F00044025578E5B1B5421AD811F8143003F029
:10060000030001280ED0022812D10D490D4B0A78A3
:10061000751B05EB42150C4A595DE0B2515C05F0C3
:1006200016FA05E0E0B205F005FA013D074B585512
:100630000134022CDAD170BDF8950120C499012053
:1006400052C2012053C201208D95040853C60120D7
:10065000024B1A780AB104F0F1BF7047F8950120F7
:1006600010B908462BF0A4BE013805F0F7BB000016
:10067000034B1A7812B1002205F038BE704700BF54
:10068000F895012010B5044618F062FB084B197864
:100690001A4611B90CB1012005E01378022B03D1E1
:1006A00014B9034B0320187018F066FB002010BD2E
:1006B000E0000020034B1878821E514251EB0200EB
:1006C000704700BFE000002010B504462BF010FD7D
:1006D00000280CBF2D205520207000202BF00AFD93
:1006E00000280CBF2D214D216170FA202BF004FD54
:1006F00000280CBF2D225222A270FA202BF0FEFC03
:1007000000280CBF2D2357230020E370207110BD5B
:10071000074B1A6810B51C4642B10648017829B942
:100720000121206814F03DFE0128F9D110BD00BF61
:1007300004960120E0000020044B186820B1044911
:100740000A780AB914F074BD704700BF04960120FE
:10075000E0000020054B1A6810B51C462AB10121A3
:10076000206814F01EFE0128F9D110BDFC9501206F
:10077000024B186808B114F05BBD7047FC9501206E
:1007800008B5044B0121186814F00BFE0128F8D1BC
:1007900008BD00BF08960120014B186814F048BD41
:1007A0000896012020B9044B04491870087070475E
:1007B0004FF0FF30704700BFE2000020E40000204F
:1007C0007FB5F0238DF8043000238DF805308DF8C7
:1007D00006308DF809107E23F7218DF807308DF84B
:1007E0000A2050238DF80B10082201A98DF808303B
:1007F00015F0F4FE07B000BD10B50D4C21780F299F
:1008000007D1012812D90B4B00221878FFF7D8FF27
:100810000CE0084B0E210C221878FFF7D1FF064898
:10082000027800216FF3070202702170002010BDD2
:10083000E1000020E2000020E4000020084B1A78CC
:1008400002F08001C9B249B106490978814205D157
:100850006FF307021A70044B0020187000207047D5
:10086000E4000020E2000020E100002038B5244B25
:10087000244C1B7823F07F0505F0FF0215B1257885
:1008800085423BD12070B2B91D4B1C6804F00700B3
:100890001D4C245C8C42197801D01A701CE0421C5B
:1008A00002F0070060F302010528197026D1C9B2D1
:1008B00041F0800211E00A0611D5F72906D103F0B4
:1008C0004001C8B210B10220FFF796FF0C4B1A7816
:1008D0006FF307021A7000220C4B1A700EE003F03F
:1008E0004000C0B238B9064B1A7842F040021A7084
:1008F000064B197000E00120FFF77EFF012038BD94
:10090000E4000020E2000020F5EC0308E1000020F4
:10091000F0B5044685B0002840F0CE80684D142024
:1009200015F0A4F8202015F089F806F0F1F9214619
:10093000082228462DF088FF214601231422614811
:10094000AB702DF081FF20462CF060FE20462CF08D
:1009500069FE20462CF072FE04202BF099FC5A48C8
:1009600004605A4C04F180010026082204F8062C89
:1009700004F8056C24F8086C04F8046C04F8036CA3
:1009800004F8026C04F8016C08348C42ECD1504F2E
:1009900007F1E0050024082307F80C3C07F80B4C8E
:1009A00027F80E4C07F80A4C07F8094C07F8084CD2
:1009B00007F8074C07F8064C07F8054C07F8024CF7
:1009C0000E37AF42E6D1434804701F2019F042FAB7
:1009D000404901EB840640F6FF75B2886FF30B02C5
:1009E000B280776865F317377760F37901346FF376
:1009F0000003082CF371EBD1002634464FF48272C9
:100A00006243354B995C072066F30001E5B260F361
:100A10004401D15428460021D71826F02BF9012192
:100A2000284626F04BF91F21284626F0C3F9284610
:100A3000402126F0A5F9002207EB820340F6FF7063
:100A40009D886FF30B059D80596860F317310D0E7B
:100A500001326FF30005402A5960DD71ECD1013499
:100A6000022C86F00106C9D11C4B1D4900246846A2
:100A70001C700C7026F00CFC08208DF800408DF8DE
:100A800001009DE80F0026F0E5FC204626F030FB33
:100A9000144B1A785978987864F301021A70DA784E
:100AA00064F3010064F3070164F3070298706D4674
:100AB0005970DA70204601E04FF0FF3005B0F0BD0C
:100AC000CA9901208C96012080DA01201496012019
:100AD000EA960120A0960120BC970120C999012027
:100AE000C8990120C499012070B5044611F0FCFC9E
:100AF000114D0121286814F054FC0128F8D120463A
:100B00000DF0C8FF064620460EF046FB4FF0FF31C1
:100B100020460FF0AFF9204611F01EFD00210A46D5
:100B20000B46204611F0FCFB286814F081FB03F013
:100B3000EFFE304670BD00BFF495012070B505464C
:100B40000A4C0121206814F02CFC0128F8D1284619
:100B50000EF03CF80646284611F0D0FD40EA0605A6
:100B6000206814F065FB284670BD00BFF495012095
:100B7000F0B5604A0388841A4FF6FF75AC4228BF6F
:100B80002C468C810B8046680E6183898B8242885B
:100B9000848A4A800C83C57E81F83A5006698E604B
:100BA00083680022CB624A84047F81F83B40457F02
:100BB00081F83950467E0E63437E0BB100F11E036F
:100BC0004B63857E1DB1447E00F11E0215190D6434
:100BD000827E437E00F11E06C089D518C2B202F0A3
:100BE0000404E4B2731964B19C785F78755D2404E1
:100BF00044EA07242C43DD7844EA05644C6004335E
:100C000000E04C6012F0010404D05D7813F8024B50
:100C100044EA0524CC8202F00204E4B22CB15D78EF
:100C200013F8024B44EA052401E04FF6FF744C83AD
:100C300002F00804E4B224B15D7813F8024B44EAF0
:100C400005248C8302F01004E4B22CB15D7813F813
:100C5000024B44EA052400E07F24CC8302F0200408
:100C6000E4B224B15D7813F8024B44EA05240C8405
:100C700002F04004E4B224B15D7813F8024B44EA78
:100C8000052402F08002D2B28C8462B19A785C783A
:100C9000120442EA04221C782243DC7842EA04620D
:100CA0008A62043300E08A62C0F3002222B113F8A2
:100CB000012B81F8382003E081F8382081F83920B1
:100CC000020A12F0020018BF13F8010B81F83C0071
:100CD00012F0040018BF13F8010B12F0080281F89B
:100CE0003D0016BF1B7881F83E2081F83E30002081
:100CF000F0BD00BF9002002073B50025144B0E22FA
:100D000002FB0530017B21B90135102DF6D1002001
:100D10007CBDA1F11003032B02D801F0030006E013
:100D2000A1F12002032AEFD801F00304201D094E8F
:100D3000002406EBC0067F21335D0091A2B20021A2
:100D4000E8B2013406F022F9082CF4D1DCE700BF48
:100D5000DC9601209502012010B50446006C10B10C
:100D60002DF0CFFD0130236B6168C01809B91F3029
:100D700000E02330E28A02B10230618BB4F91C201A
:100D80004FF6FF73994218BF023002B10230B4F936
:100D90001E10B4F920307F2918BF023003B1023091
:100DA000A28C02B10230A16A01B1043094F838304B
:100DB00003B1013094F83C2002B1013094F83D10A9
:100DC00001B1013094F83E3003B1013010BD70B56F
:100DD00003880B800446006948600D46A18AA981FA
:100DE0006288268B6A80AE8294F83A30EB76A068EF
:100DF0002861E16AA96094F83B202A7794F8396069
:100E00006E77206C10B12DF07CFD0130236B626B8E
:100E1000C61802B1DAB26A76A87622B105F11E00D0
:100E2000616B2DF0EEFCAA7E32B1697E05F11E00E9
:100E30004018216C2DF0E5FC00206B7EAA7EE88135
:100E4000606805F11E01D2188B1810B906F11F0257
:100E50000FE0A87B40F00400A873606888546168C4
:100E60000A0A5A70E0889870E17906F12302D97075
:100E70000433E08A50B1A97B41F00100A873E18AF4
:100E80001970E08A010A597002320233608B4FF602
:100E9000FF7188420AD0A87B40F00201A973608BE1
:100EA0001870618B080A587002320233B4F91C10B2
:100EB00051B1A87B40F00801A973A08B1870A18BD9
:100EC000080A587002320233B4F91E107F290AD082
:100ED000A87B40F01001A973E08B1870E18B080A21
:100EE000587002320233B4F9201051B1A87B40F09F
:100EF0002001A973208C1870218C080A58700232C6
:100F00000233A18C51B1A87B40F04001A973A08CA1
:100F10001870A18C080A587002320233A16A79B1A4
:100F2000A87B40F08001A973A06A1870A16A080A22
:100F30005870618D997094F82B000432D870043386
:100F400094F8381041B1E87B40F00101E97394F85E
:100F5000380003F8010B013294F83C1041B1E87BF2
:100F600040F00201E97394F83C0003F8010B0132F0
:100F700094F83D1041B1E87B40F00401E97394F826
:100F80003D0003F8010B013294F83E1039B1E87BC3
:100F900040F00801E97394F83E0001321870002017
:100FA000E8822A7670BD0000214B1A88501C81B25D
:100FB000B1F57A7F70B501D219800BE000221A805A
:100FC00014F03EFA1B481C494FF6FF7303800B8058
:100FD00014F044FA194B1A88501C81B2B1F5967F6F
:100FE000198023D3164A0020188002F14004A2F190
:100FF000080313F8011B11F07F0509D00A3D21F009
:101000007F06002DACBF354346F0000503F8015CB8
:1010100013F8015C8D4218BF01209342E9D103F11E
:101020000802A242E3D108B1FFF766FE002070BDBE
:101030008202002000020020DC0301208802002040
:101040009D020120084B094900201880084B0880A8
:101050001880084B08491880084B08800121197036
:1010600007490870704700BF92020120D602012094
:101070008E020020D2990120E80000208602002084
:10108000FC000020F0B5124B12481D880678124B68
:1010900000221146A94216D2D87E5C7960B1B0EB2D
:1010A000060CDCF1000757EB0C0767F345145C7185
:1010B000824238BF024602E044F020045C71187E90
:1010C00001311B18E6E7054900200A70F0BD00BF9A
:1010D0008E0200208602002090020020FC000020EA
:1010E00010B5064B064C1A882188064815F09CFB63
:1010F00005482188BDE8104015F0E6BBD602012066
:1011000092020120FCEE0308900200202DE9F0413C
:101110003D4B1988A2B019B93C4815F085FB6EE02B
:101120003B483C4C15F080FB3B4801880026641886
:10113000354A13889E4262D2A578627802A8032DB0
:101140000BD8DFE805F002040608344906E034490C
:1011500004E0344902E0344900E034491AF04EFB1F
:101160002778A078033F0025012804F103081BD04D
:1011700003282FD118E0202D30D008EB0500A378EC
:10118000417818F80520032B42EA01200FD105F021
:101190000301022914BF20233A23009002A8244906
:1011A00002461AF02BFB0235BD42E4DB20E020238F
:1011B000F3E7A178022919D115F0010F0CBF202304
:1011C0003A2318F805201A49009202A802461AF09C
:1011D00015FB0135BD420BDA202DEAD1202F07DDAA
:1011E00002A8144902461AF009FB01E02023E8E7AF
:1011F00002A815F019FB23780136E41898E70020BF
:1012000022B0BDE8F08100BFE800002023EF030812
:1012100034EF030890020020D602012046EF0308B5
:1012200051EF03085DEF030869EF030876EF030849
:101230007CEF030883EF0308014B1888704700BF59
:101240008E020020014B1888704700BFE800002084
:10125000014B1888704700BF920201204FF4803084
:1012600070470000F8B5104E35881C46EF184FF651
:10127000FD739F4215DC0D4B1F8801371F800C4FFB
:1012800004F1030E7B1907F805E0033558709970D7
:10129000D81C1146224664192DF0B3FA3480002080
:1012A000F8BD6FF00100F8BD92020120E8000020B7
:1012B000900200200D4B70B51D880D4C63190D4D2B
:1012C0002D880024AC420DD25E78864206D19878F3
:1012D0000870D91C11601A78D01E70BD1E780134B8
:1012E0009B19EFE74FF0FF3070BD00BFD602012021
:1012F00090020020E800002073B50C4615461E46FB
:101300000DF10301002301AA8DF803300193FFF7CB
:10131000D1FF002840F3BC809DF80310032900F2A0
:10132000B780DFE801F0020E1E5E25B1421E544375
:1013300094FBF5F402E08442A8BF441E0199085DC5
:10134000B4E0431025B1591E4C4394FBF5F402E080
:101350009C42A8BF5C1E019B640018191B5D40786D
:10136000A2E0012801D1019B95E0023816B30025C7
:101370008542019B80F28F805A78D978914206DBB2
:10138000A24204DCA14202DB1D7898784DE08A423B
:1013900003DDA14201DCA242F6DA991C023501917B
:1013A000E6E7117895788D4208DAA94214DC931C9F
:1013B000023601938642019AF3DB6EE0A142F4DC2F
:1013C000A542F2DB5378D278641AD01A6043691AC6
:1013D00090FBF1F2981869E0A542E8DCA142E6DB57
:1013E000F0E7022801DC019B59E0043866B30025D0
:1013F00002E00433043501938542019B4FDADE7825
:101400009A78997942EA0622DE7941EA06219142E8
:1014100013DBA242EDDCA142EBDB18785D7840EAF9
:10142000052558791B7943EA0020A41A401B604324
:101430008A1A90FBF2F3E81838E0A142D9DCA24204
:10144000EAE70432043601928642019A2ADA557894
:101450001178137941EA0521557943EA05238B4236
:1014600012DBA142EDDCA342EBDB9078D57840EAB9
:101470000525D079927942EA0020641A421B624322
:10148000591A92FBF1F3D6E7A342DADCA142EBE76B
:101490004FF0FF300AE0187808E0507806E05878FE
:1014A0001B7801E0D078937843EA00207CBDF0B54A
:1014B000032810D8DFE800F00204080C002405E03F
:1014C00052080024012609E052080124002605E004
:1014D00092080124F6E70024264622460D46002005
:1014E00090420EDA04B102352F780EB9013504E0CE
:1014F00095F801C0023547EA0C279F4216D001300B
:10150000EEE70020904210DA04B102310D780EB9F6
:10151000013103E04F78023145EA07259D4202D9A7
:1015200020B10138F0BD0130ECE7501EF0BD0000E5
:10153000014B1878704700BF860200200D4B30B574
:101540001C880D4B0022A24211D259880905B0EB2C
:10155000115F08D1D97E31B15D7905F02005EDB27A
:101560000DB1084630BD197E01325B18EBE7002053
:1015700030BD00BF8E02002090020020038803F4DB
:101580007041B1F5E04F20D00FD8B1F5804F1CD09D
:1015900005D8B1F5805F18D0B1F5405F14E0B1F522
:1015A000A04F12D0B1F5C04F0EE0B1F5204F0CD0D6
:1015B00005D8B1F5004F08D0B1F5104F04E0B1F5F2
:1015C000304F02D0B1F5504F0DD1007C00F00F0329
:1015D0000B2B08D8012202FA03F240F6FE3111402B
:1015E00009B1002070470120704730B54FF6FF74F5
:1015F0000180418001F470410023848141F2110592
:1016000044837F24B1F5004F036183828560C382E8
:10161000436003838383C4830384C36283848362BC
:10162000036380F83A3080F83B3080F8383080F837
:10163000393080F83C3080F83D3080F83E304363EC
:10164000036426D011D8B1F5405F1DD0B1F5E04F4D
:1016500024D1017D027C012363F3030163F30712AC
:1016600063F306110274017518E0B1F5104F10D044
:10167000B1F5504F12D1C82364211422038580F89C
:101680002A1080F82B2009E0037D012262F3010378
:1016900003E0037D012161F303030375002030BDE6
:1016A0000A4B1A88904210B50DD2094B00221C7EBD
:1016B000013282421C4401D82346F8E71846FFF75E
:1016C00057FA002010BD4FF0FF3010BD8E020020F1
:1016D000900200202DE9F0418046FFF73DFBFF28F6
:1016E000054624D8164B1E888019B0F5803F22D8B5
:1016F00014490C88B44206D2134A2F19D019111973
:10170000321B2DF087F8104B1F1939464046FFF762
:101710005EFB387E0D4B0A491A8836180E8009493F
:10172000501C641918800C800020BDE8F0814FF037
:10173000FF30BDE8F0816FF00100BDE8F08100BF2F
:1017400092020120D6020120900200208E02002089
:101750002DE9F0472F4B304C1A88A2B005460023E4
:1017600093424FD220882988884247D1286C20B1E3
:101770002DF0C7F800F1010800E080462846FFF789
:10178000EBFAFF2841D8227E861A06D423490B881B
:101790009919B1F5803F38DC5EB307192048B8F1DC
:1017A0007F0F04EB0209C7EB000A02D91D4815F0B0
:1017B0003BF8296C39B10DF1040840462DF099F839
:1017C000C5F8408001E08DF804105246494638467D
:1017D0002DF020F821462846FFF7F9FA0F4B1A881A
:1017E000B6B2B1181980104B188836181E80002028
:1017F0000DE028462146FFF7EAFAF8E7207E01339C
:101800002418ADE74FF0FF3001E06FF0010022B087
:10181000BDE8F0878E020020900200209202012095
:10182000900201208AEF0308D6020120F8B515685E
:10183000144C164615B114FA85F42D0C124B1F8862
:10184000BD421BD22288824214D120460135FFF7C7
:101850008FF9BD42207E05D20A49421AA418B4F578
:10186000803F02D300203060F8BD44EA0544346074
:101870000020F8BD237E0135E418E1E74FF0FF308A
:10188000F8BD00BF900200208E020020F8B5156858
:10189000164C164615B114FA85F42D0C144B1F88FE
:1018A000BD4220D2627902F02003DAB2BAB1638875
:1018B000834214D120460135FFF75AF9BD42207EFC
:1018C00005D20A49431AE418B4F5803F02D3002038
:1018D0003060F8BD44EA054434600020F8BD227E43
:1018E0000135A418DCE74FF0FF30F8BD900200206E
:1018F0008E020020F0B51D68114C15B114FA85F464
:101900002D0C104E3688B54217D227880780A08A42
:101910000880217F01351170B542207E05D2084A2A
:10192000811A6418B4F5803F02D300201860F0BD1E
:1019300044EA05441C600020F0BD4FF0FF30F0BDCC
:10194000900200208E02002083894FF6FF7293429E
:101950000FD00949028BCB189A82417C01F0080212
:10196000D1B211B190F83B0018775A796FF3820227
:101970005A710020704700BF9002002083894FF603
:10198000FF7293420BD0074AD31801F001015A7934
:1019900061F3C7125A71437C61F3C713437400208B
:1019A000704700BF9002002083894FF6FF72934278
:1019B00005D00448C3185A7961F386125A71002081
:1019C000704700BF9002002083894FF6FF72934258
:1019D00004D0034AD318597780F839100020704793
:1019E000900200202DE9F3478846144699460DF1F0
:1019F0000301002301AA8DF803300193FFF75AFC7D
:101A000000284CDD9DF80310032903D8DFE801F01E
:101A100011060A0E00252F462E460DE04610002521
:101A2000012709E046100125002705E08610012561
:101A3000F6E7002506462F4698F839A05444B442EC
:101A400003DBB9F1000F07D104E0002C07DAB9F18C
:101A5000000F03D0741E02E0002400E04C46E6B202
:101A600040463146FFF7B0FF67B115B1A200901CA8
:101A700000E06000C3B20198C118C35C4A7843EA31
:101A8000022105E015B16000421CD6B2019B995DB0
:101A9000BAEB0400A8F8181018BF012001E04FF0BD
:101AA000FF30BDE8FC87000030B503791B0793B019
:101AB000044651D040682A49014071B10025C0F365
:101AC0000D1001A96A460095FFF7B0FEA84201DAA1
:101AD000284642E0BDF81C3000E0238B227902F05A
:101AE0000F00421E072A35D8DFE802F0040B111858
:101AF0001D242930E088B3EB900F14BF0020012093
:101B00002BE0E188B3EB910F24D1022025E0E2889D
:101B1000B3EB920F0CBF002001201EE0E088B3EB76
:101B2000900FF2D116E0E188B3EB910FACBF00202B
:101B3000012012E0E288B3EB920F0BDAE5E7E088D0
:101B4000B3EB900FCCBF0020012006E0E188B3EB9F
:101B5000910FDADD002000E0012013B030BD00BF9E
:101B6000F0FF030010B500230749002201EBC3007A
:101B7000002484540132082AFAD10133082BF3D10E
:101B8000FFF7BAF8204610BD950201200A4B0B4919
:101B90000B4A187000204FF6FF7308601380094944
:101BA000094A0B8010700949094A087010700949E8
:101BB000094A0B8013807047F0000020EC000020E1
:101BC000FE00002080020020F6000020DA03012041
:101BD00090020120FA0000208402002030B5044663
:101BE0009DB0002840F0C480FFF72CFA624D634B93
:101BF000634A64481C804FF6FF710480118029807D
:101C0000FFF7B0FF2046FFF7C1FF012404F5405362
:101C100099B20BA8FFF7E9FC9DF83C10022262F391
:101C2000030104F1230344F480409025ADF8420001
:101C30008DF83C10D8B28DF8005000A905AD8DF894
:101C4000010018918DF867004F49179228462CF033
:101C500050FE01340BA81B95FFF73CFD412CD5D15C
:101C6000012404F5E04291B20BA8FFF7BEFC9DF8F9
:101C70003C00042161F30300B02504F10F0244F499
:101C8000C04302218DF83C008DF8005000A805AD3E
:101C9000ADF842301890D3B2179128463B498DF8E1
:101CA00001308DF8673001342CF023FE0BA81B9512
:101CB000FFF710FD412CD4D10020012124F0DAFFE0
:101CC00049F2010421460BA8FFF78FFC9DF83C3038
:101CD00004F10F01CDB2042262F30303B1208DF8A9
:101CE00001508DF8675005AD02228DF83C308DF81B
:101CF000000000AB264918932846179201342CF0B7
:101D0000F8FD0BA81B95A4B2FFF7E4FC49F24100D3
:101D10008442D7D148F2010421460BA8FFF765FCA5
:101D20009DF83C10042363F3030104F10F05E8B2AE
:101D30008DF83C1005AD00A9B22202238DF80100F8
:101D400018918DF8670013498DF8002028461793E5
:101D500001342CF0CEFD0BA81B95A4B2FFF7BAFC02
:101D600048F207029442D7D1FFF78CF9002001E036
:101D70004FF0FF301DB030BDDC030120000100201A
:101D800000020020D8020120B7EF0308C0EF0308CB
:101D9000C9EF0308D3EF0308014B1878704700BF61
:101DA000F000002073B51D4B1A680D4606460178F9
:101DB00042B911B91A492CF09CFD284619492CF05A
:101DC00098FD29E0C1B9184C2378012B0BD9174A8B
:101DD0001178072907D1164B164C1A881649238803
:101DE00019F00CFD08E00D481449C4784278837856
:101DF0000094304619F002FD1149124A0B881288EE
:101E000011494FF6FF742846A24208BF0022A342A0
:101E100008BF7F2319F0F2FC00207CBDEC000020FD
:101E2000DCEF0308F1EF0308F0000020900201202E
:101E3000FA0000208402002006F0030817F00308CF
:101E400080020020FE00002032F00308084B094900
:101E5000094A18804FF40043002013800880074A85
:101E6000074913800B80074B01211970704700BF91
:101E7000D8030120F8000020F4000020F200002028
:101E80008A0200208C020020014B1888704700BF96
:101E9000D803012000F47040B0F5E04F35D014D8DD
:101EA000B0F5405F29D006D8B0F5805F3BD0B0F5E3
:101EB000005F1ED11FE0B0F5A04F22D0B0F5C04F9B
:101EC00021D0B0F5804F14D119E0B0F5204F22D0C9
:101ED00006D8B0F5004F1AD0B0F5104F09D118E070
:101EE000B0F5404F1BD0B0F5504F1AD0B0F5304F81
:101EF00013D00E4870470E4870470E4870470E4882
:101F000070470E4870470E4870470E4870470E489D
:101F100070470E4870470E4870470E4870470E488D
:101F200070470E4870470E48704700BF43F00308E3
:101F300053F003085CF0030848F0030863F003085B
:101F400071F003087CF0030880F0030884F00308B4
:101F50008BF003088EF0030891F0030894F0030857
:101F60004CF003082DE9F0417C4B1C88D4B0002CC8
:101F700000F0EF800388A34200F0EB80027C02F0C7
:101F80000F020A2A00F0E580754D2E88B3420BD06F
:101F9000744F754A2B80D6F1010689B238BF0026EE
:101FA00039801180012301E000231E466D4D018B15
:101FB000B5F900006C4F8142B8BF2980B7F9002005
:101FC0006A4DB8BF0123B5F9000029809142684AE3
